:100000000C947D000C94DF020C94DF020C94DF0250
:100010000C94DF020C94DF020C94DF020C94DF02DC
:100020000C94B7020C94DF020C94DF020C94DF02F4
:100030000C94DF020C94DF020C94DF020C94DF02BC
:100040000C94DF020C94DF020C94DF020C94DF02AC
:100050000C94DF020C94DF020C94DF020C94DF029C
:100060000C94C1020C94DF020C94DF020C94DF02AA
:100070000C94DF020C94DF020C94BC020C94DF029F
:100080000C94DF020C94DF020C94DF020C94CB0280
:100090000C94DF020C94DF020C94DF020C94DF025C
:1000A0000C94DF020C94DF020C94DF020C94DF024C
:1000B0000C94DF020C94F4010C94C6020C94DF0241
:1000C0000C94DF020C94DF020C94DF020C94DF022C
:1000D0000C94DF020C946E020C94DF020C94DF028D
:1000E0000C94DF020C94DF020C94DF020C94DF020C
:1000F0000C94DF024000402F800011241FBECFEF80
:10010000CDBFDFE7DEBFE4EFF0E040E019C0B7911C
:10011000A79137912791079107FD0EC0979187917D
:10012000EF01F92FE82F0BBF07900D92A217B3072D
:10013000D9F7FE011BBE04C01D92A217B307E1F759
:10014000E93FF40721F70E94DC020C94A302F89423
:02015000FFCFDF
:100152000F931F93CF93DF9340E054E0FA01108294
:1001620020E234E089E0F901808380E494E0FC013C
:100172001082C0E6D4E01882A0E8B4E01C9200EA43
:1001820014E0F8011082FA01148261E0F90164833B
:10019200FC0114821C8214961C921497F80114829A
:1001A200FA01108A118A128A138A148A158A168A07
:1001B200178AF901108A118A4BE0428B138A148A3A
:1001C200158A168A178AFC01108A118A128A138AE2
:1001D200148A158A168A178A188A198A1A8A1B8A11
:1001E2001C8A1D8A1E8A1F8A50961C92509751960D
:1001F2001C92519752961C92529753961C92539767
:1002020054961C92549755961C92559756961C924A
:10021200569757961C92F801108A118A128A138AED
:10022200148A158A168A178AE0EEF5E01186118281
:10023200108214821682178210861582128213820D
:10024200128683EE92E080931E4090931F4084EECC
:1002520092E080931C4090931D4085ED92E0809344
:100262001A4090931B4085EE92E080931840909341
:0C0272001940DF91CF911F910F9108956A
:10027E00E0912E40F0E0EE0FFF1FE050F04C1082A8
:10028E0011828091610882FF11C0E0912E40F0E052
:10029E00EE0FFF1FE050F04C808182608083E09172
:1002AE002840F0912940309709F009958091610816
:1002BE0081FF0CC0EAE2F0E4808181608083E091EE
:1002CE002440F0912540309709F0099580916108FE
:1002DE0086FF11C0E0912E40F0E0EE0FFF1FE050C0
:1002EE00F04C808184608083E0912640F09127401D
:1002FE00309709F0099590916008943519F488E0CB
:10030E008093270480912E408F5F877020912D401F
:10031E00821769F0E0912E40F0E0E05FFF4B908392
:10032E0080932E4080912C408F5F80932C40E091E3
:0E033E002040F0912140309709F00995089574
:10034C0040E068ED80E690E00E94D00240E068ED6D
:10035C0081E690E00E94D00240E068ED85E690E0F6
:10036C000E94D00240E068ED88E790E00E94D00245
:10037C004CE068ED88E690E00E94D00240E068ED29
:10038C0089E690E00E94D00240E068ED80E790E0C2
:10039C000E94D00240E068ED8CE790E00E94D00211
:1003AC0040E068ED82E690E00E94D00240E068ED0B
:1003BC0083E690E00E94D00240E068ED84E690E095
:1003CC000E94D00240E068ED80E890E00E94D002EC
:0C03DC00E0E6F0E0858181FFFDCF089590
:1003E8001F920F920FB60F9211240BB60F922F93F4
:1003F8003F934F935F936F937F938F939F93AF93A5
:10040800BF93EF93FF93399B05C0E0911E40F09195
:100418001F400995389B05C0E0911C40F0911D4094
:1004280009953A9B05C0E0911A40F0911B40099547
:100438003B9B05C0E0911840F091194009958FEF5A
:1004480087B9FF91EF91BF91AF919F918F917F9164
:100458006F915F914F913F912F910F900BBE0F902D
:080468000FBE0F901F901895C4
:100470008FE391E08093224090932340E0E6F8E000
:1004800083E896E08087918780E9858380EC868386
:1004900083E08783138614861686158686EE92E09F
:1004A000809328409093294087EE92E080932640E5
:1004B0009093274088EE92E08093244090932540CB
:1004C00010922A4010922B4010922E4010922D40F4
:0C04D00010922C4085818068858308957F
:1004DC001F920F920FB60F9211240BB60F922F93FF
:1004EC003F934F935F936F937F938F939F93AF93B0
:1004FC00BF93EF93FF930E943F01FF91EF91BF9148
:10050C00AF919F918F917F916F915F914F913F919F
:10051C002F910F900BBE0F900FBE0F901F90189540
:10052C0040E068ED80E191E00E94D002E0E1F1E072
:0A053C0012821382789480E0089583
:10054600EC010E94EA020E94E902CE010E94EB023F
:06055600CE010E94E1024B
:10055C000E94A6010E94A9000E9438020E949602E5
:02056C000895F0
:0A056E008F938FEF83B98F911895DA
:0A0578008F938FEF8BB98F911895C8
:0A0582008F938FEF8FB98F911895BA
:0A058C008F938FEF83BB8F911895BA
:0A0596008F938FEF87BB8F911895AC
:0A05A0001BBEFC0164BF40830895F8
:0805AA0083E50E94D9020895C7
:0605B20080936208089529
:0605B8000E94AE02FFCF1D
:0405BE000C94000099
:0405C2000E94A700EC
:0205C600089596
:0205C800089594
:0205CA00089592
:0205CC00089590
:0205CE0008958E
:0205D00008958C
:0205D20008958A
:0205D400089588
:0205D600089586
:02000004008278
:090000000000000000C00800002F
:00000001FF
